:060000000A128A11FC2F18
:10000800F30083120313081173080A168A11F323E5
:100018000A128A118312031388150B30F20062301A
:10002800F100F10B1528F20B1528000083120313B9
:100038008811080083120313C6006E304602031CA1
:10004800FC280330BA003A08A4000A30F700003050
:10005800F8004608BB00BC013B08F2003C08F3006E
:100068006430F0000030F1000A168A116A250A127D
:100078008A117108FA007008F9000A168A115C26BC
:100088000A128A117708093E0A168A11CC230A1225
:100098008A11503E84000A168A110A200A128A110F
:1000A80083120313A7000A168A110A200A128A115A
:1000B800A8000A168A110A200A128A11A900033018
:1000C800BD003D08A4006430F7000030F800460881
:1000D800BE00BF013E08F9003F08FA000A168A115F
:1000E8005C260A128A117708123E0A168A11CC2356
:1000F8000A128A11503E84000A168A110A200A122E
:100108008A1183120313AA000A168A110A200A12F6
:100118008A11AB000A168A110A200A128A11AC0049
:100128000A128A153E210A128A118312031327081C
:10013800C3002808C4002908C5000330BA003A08DB
:10014800A4004608BB00BC013B08F2003C08F300D1
:100158000A30F0000030F1000A168A116A250A12E6
:100168008A1170080A168A11CC230A128A11503E85
:1001780084000A168A110A200A128A1183120313AC
:10018800A7000A168A110A200A128A11A8000A165C
:100198008A110A200A128A11A9004308AA004408F1
:1001A800AB004508AC000A128A153E210A128A11D2
:1001B800831203132708C0002808C1002908C200B9
:1001C8000030A7000030A8003F30A9004008AA006E
:1001D8004108AB004208AC000A128A153E2183127E
:1001E80003132708B7002808B8002908B900080031
:1001F8000B304602031C86290330BA003A08A400D3
:100208004608BB00BC013B08F2003C08F3000A307A
:10021800F0000030F1000A168A116A250A128A11C4
:1002280070080A168A11CC230A128A11503E8400DB
:100238000A168A110A200A128A1183120313A700C8
:100248000A168A110A200A128A11A8000A168A11A7
:100258000A200A128A11A9000330BD003D08A40033
:100268000A30F7000030F8004608BE00BF013E081B
:10027800F9003F08FA000A168A115C260A128A1148
:100288007708093E0A168A11CC230A128A11503EB1
:1002980084000A168A110A200A128A11831203138B
:1002A800AA000A168A110A200A128A11AB000A1635
:1002B8008A110A200A128A11AC000A128A153E21F4
:1002C8000A128A11831203132708C3002808C400DE
:1002D8002908C5000030A7000030A8003F30A90059
:1002E8004308AA004408AB004508AC000A128A1566
:1002F8003E21831203132708B7002808B8002908ED
:10030800B90008000030A7000030A8003F30A9005D
:100318000330BA003A08A40046080A168A11CC230A
:100328000A128A11503E84000A168A110A200A12FB
:100338008A1183120313AA000A168A110A200A12C4
:100348008A11AB000A168A110A200A128A11AC0017
:100358000A128A153E21831203132708B7002808BA
:10036800B8002908B900080083160313B0005B30F1
:1003780083120313DE005E0883160313A300013003
:100388008312DA07FF305A0784000A168A110A20F6
:100398000A128A11DE005E0883160313B6003608B7
:1003A8000319F72F253036060319DE29360883127C
:1003B8000313E62FA401A501831203135A0884002E
:1003C8000A168A110A200A128A112E3A031D3C2A9B
:1003D800831603132517013083120313DE005E080A
:1003E800DA0783160313B101B20183125A08840095
:1003F8000A168A110A200A128A110A128A1501207D
:100408000A128A11031C442A831603133208F100C6
:100418003108F0000A30F2000030F3000A168A11A1
:100428002E240A128A11831203135A0884000A160A
:100438008A110A200A128A117007DE000030031898
:1004480001307107DF005E08D03E83160313B10048
:10045800831203135F080318013EFF3E831603133C
:10046800B200013083120313DE005E08DA07F929AF
:1004780083160313B101B2012516442A25155A2AF9
:10048800013083120313DA07FF305A0784000A1673
:100498008A110A200A128A1183160313B600003A39
:1004A8000319F72F663A0319422AC3290030240595
:1004B80083120313DE000730831603132505831206
:1004C8000313DF005E085F040319792F83160313F3
:1004D800251E722A0630B1000030B20023088400BD
:1004E80083130008B300840A0008B400840A0008D3
:1004F800B500033083120313DE005E08831603136E
:10050800A3073308F0003408F1003508F200003082
:10051800F3000030F4000030F5000A168A11B726FF
:100528000A128A110318B12A831603133308F0003C
:100538003408F1003508F2000A168A11A5230A12B8
:100548008A11700883160313B3007108B400720887
:10055800B5000330A4040030A50483160313AA01D0
:10056800AB013508340433040319A52BB3308400D8
:100578008313000883120313DE00840A0008DF00D7
:10058800840A0008E000840A0008E1000F30031024
:10059800E10CE00CDF0CDE0CFF3E031DCB2AFF3024
:1005A8005E05E20000305F05E3006208823E8316C4
:1005B8000313AA008312031363080318013EFF3EC6
:1005C80083160313AB00FF30AA070318AB0AFF30EA
:1005D800AB070330F0000030F1002B08F3002A08C5
:1005E800F2000A168A112E240A128A11710883163B
:1005F8000313AB007008AA000A30F7000030F800B7
:100608002B08FA002A08F9000A168A115C260A1231
:100618008A11780883160313AB007708AA00AB1F6A
:100628001B2BFF30AA070318AB0AFF30AB072A03BE
:10063800FF3A0A128A1565250A128A1183120313D2
:10064800370883160313AC00831203133808831684
:100658000313AD0083120313390883160313AE0086
:10066800330883120313A700831603133408831275
:100678000313A80083160313350883120313A90074
:10068800831603132C0883120313AA00831603137B
:100698002D0883120313AB00831603132E0883124D
:1006A8000313AC000A128A153E210A128A1183121A
:1006B8000313270883160313AC00831203132808B7
:1006C80083160313AD00831203132908831603133B
:1006D800AE002C08F0002D08F1002E08F2000030C2
:1006E800F3008030F4003F30F5000A168A11B7266F
:1006F8000A128A110318882BFF3083160313AA07DE
:100708000318AB0AFF30A42B831603132C08F00040
:100718002D08F1002E08F2000030F3002030F4001C
:100728004130F5000A168A11B7260A128A11031CED
:10073800A52B013083160313AA070318AB0A003050
:10074800AB07831603133208803AFF0080307F021C
:10075800031DB02B0D3031020318EB2B8316031346
:1007680031080A128A111E200A128A1183120313F1
:100778003708C7003808C8003908C90083160313AA
:10078800330883120313CA00831603133408831231
:100798000313CB0083160313350883120313CC000D
:1007A8000A128A1511220A128A11831203134708A2
:1007B80083160313B3008312031348088316031325
:1007C800B40083120313490883160313B500831674
:1007D80003132B08803AFF0080307F02031DF62B9D
:1007E8000A302A020318292C831603133508340407
:1007F80033040319822C330883120313C0008316B1
:100808000313340883120313C10083160313350836
:1008180083120313C2000A168A1172270A128A1158
:10082800831203134308420441044004031D822C2D
:10083800831603132B08803AFF0080307F02031DC4
:10084800272C02302A02031C822C831603132C083F
:10085800F0002D08F1002E08F2007030F300893006
:10086800F4004030F5000A168A11B7260A128A11D8
:100878000318402CF730412CF83083160313AA07CD
:100888000318AB0AFF30AB072A080A128A15652538
:100898000A128A1183120313370883160313AC0054
:1008A80083120313380883160313AD00831203134E
:1008B800390883160313AE003308F0003408F1003A
:1008C8003508F2002C08F3002D08F4002E08F50076
:1008D8000A128A157B200A128A11730883160313D9
:1008E800A9007208A8007108A7007008A6000030C7
:1008F800B3000030B4000030B500F12C83160313A8
:10090800330883120313C0008316031334088312B9
:100918000313C10083160313350883120313C2009F
:100928000A168A1172270A128A11831203134308BE
:1009380083160313A90083120313420883160313B3
:10094800A80083120313410883160313A700831218
:100958000313400883160313A6002908FB00280880
:10096800FA002708F9002608F8000A168A114F2409
:100978000A128A11780883120313D4007908D50063
:100988007A08D60083160313330883120313D7009B
:1009980083160313340883120313D8008316031332
:1009A800350883120313D9000A168A110D240A1276
:1009B8008A1183120313540883160313B300831296
:1009C8000313550883160313B40083120313560840
:1009D80083160313B500AA01AB01B601B60A0A30A3
:1009E80036060319472D360883120313DE0001303B
:1009F8000310DE0DFF3E031DFC2C03105E0D013EAF
:100A080084000A168A110A200A128A11DF000A16BF
:100A18008A110A200A128A11E0000A168A110A208D
:100A28000A128A11E1000A168A110A200A128A118A
:100A3800E2006208831603132902031D392D83126D
:100A480003136108831603132802031D392D83122B
:100A580003136008831603132702031D392D83121D
:100A680003135F08831603132602031C472D013066
:100A780083120313DE005E0883160313B6070A30D9
:100A88003606031DF72C0330240583120313DE00FA
:100A9800003083160313250583120313DF005E0855
:100AA8005F040319682D2D30DE0083160313300808
:100AB8008400831203135E08831380000130DE0074
:100AC8005E0883160313B007FF308312DE005E084A
:100AD80083160313B607360A0319EE2D3608831258
:100AE8000313DE0001300310DE0DFF3E031D772DDA
:100AF80003105E0D013E84000A168A110A200A12AC
:100B08008A11F0000A168A110A200A128A11F100C5
:100B18000A168A110A200A128A11F2000A168A1184
:100B28000A200A128A11F300831603132908F70012
:100B38002808F6002708F5002608F4000A168A1186
:100B480014270A128A11730883160313AF00720858
:100B5800AE007108AD007008AC000030F300003042
:100B6800F2000030F1000A30F0002F08F7002E08DC
:100B7800F6002D08F5002C08F4000A168A11B52590
:100B88000A128A11730883160313AF007208AE00A5
:100B98007108AD007008AC002C08303E83120313B6
:100BA800582D303083120313DE00831603133008E8
:100BB8008400831203135E08831380000130DE0073
:100BC8005E0883160313B007FF30AA070318AB0AA1
:100BD800FF30AB072B08803AFF0080307F02031DEF
:100BE800F72D01302A020318D52D83160313320876
:100BF800803AFF0080307F02031D042E0930310245
:100C0800031C082E08300B2E831603133108831299
:100C18000313DE005E0883160313B600360883123A
:100C28000313DE00DF01DE1BDF035E0883160313F8
:100C3800B102831203135F0883160313031CB20364
:100C4800B202360803193B2E2E3083120313DE003E
:100C58008316031330088400831203135E0883137A
:100C680080000130DE005E0883160313B0073608E3
:100C78000A128A1565250A128A1183120313370886
:100C880083160313A0008312031338088316031373
:100C9800A10083120313390883160313A200200846
:100CA80083120313AA008316031321088312031364
:100CB800AB0083160313220883120313AC008316B8
:100CC8000313330883120313A7008316031334088E
:100CD80083120313A8008316031335088312031322
:100CE800A9000A128A153E210A128A1183120313D7
:100CF8002708C0002808C1002908C2000A168A115E
:100D080072270A128A1183120313430883160313E6
:100D1800A90083120313420883160313A800831241
:100D28000313410883160313A70083120313400813
:100D380083160313A600FF3083120313DE005E0838
:100D480083160313B607360A0319742F360883125D
:100D58000313DE0001300310DE0DFF3E031DAF2E2E
:100D680003105E0D013E84000A168A110A200A1239
:100D78008A11F0000A168A110A200A128A11F10053
:100D88000A168A110A200A128A11F2000A168A1112
:100D98000A200A128A11F300831603132908F700A0
:100DA8002808F6002708F5002608F4000A168A1114
:100DB80014270A128A11730883160313AF007208E6
:100DC800AE007108AD007008AC000030F3000030D0
:100DD800F2000030F1000A30F0002F08F7002E086A
:100DE800F6002D08F5002C08F4000A168A11B5251E
:100DF8000A128A11730883160313AF007208AE0033
:100E08007108AD007008AC002C08303E8312031343
:100E1800DE008316031330088400831203135E0870
:100E2800831380000130DE005E0883160313B007C9
:100E3800360883120313DE0001300310DE0DFF3E77
:100E4800031D212F03105E0D013E84000A168A112E
:100E58000A200A128A11F0000A168A110A200A12B8
:100E68008A11F1000A168A110A200A128A11F20060
:100E78000A168A110A200A128A11F300831603132C
:100E88002908F7002808F6002708F5002608F400C6
:100E98000A168A11B5250A128A11730883160313D4
:100EA800A9007208A8007108A70070089E2E3030AB
:100EB80083120313DE0083160313300884008312A1
:100EC80003135E08831380000130DE005E0883167A
:100ED8000313B007FF30B1070318B20AFF30B20797
:100EE800310832040319C3295B2F83160313310811
:100EF8003204031D8B2F2908280427042604031D08
:100F08008B2F0130B1070318B20A0030B207360838
:100F180083120313DE00DF01DE1BDF035F08803A64
:100F2800E000831603133208803A83120313600229
:100F3800031DA42F831603133108831203135E02C3
:100F48000318B12F83160313310883120313DE002D
:100F58005E0883160313B600D32F831603133608CF
:100F680083120313DE00DF01DE1BDF038316031386
:100F78003208803A83120313E0005F08803A600267
:100F8800031DCA2F5E088316031331020318D32FDB
:100F9800831603133608B100B201B11BB203033044
:100FA80083160313240583120313DE00003083160F
:100FB8000313250583120313DF005E085F0403197A
:100FC800C3292D30DE0083160313300884008312F2
:100FD80003135E08831380000130DE005E08831669
:100FE8000313B007C3293008840083138001080065
:080FF80083010A128A151A2B6D
:10100200F100F0013A30710203180D2830307102FC
:10101200031C0D28F001F00A700C08007308031974
:101022001728720871047004031D2A280030F0008A
:101032000030F1000030F20008000130F5007508C0
:10104200F30701300310F20CF10CF00CFF3E031D0C
:101052002328FE307205031945281E280130F500A9
:101062007508F3070130F007003003180130F1076B
:10107200003003180130F20701300310F20CF10CBA
:10108200F00CFF3E031D3E28FF3072050319542861
:101092002F280130F30201300310F00DF10DF20D93
:1010A200FF3E031D4D28F11B5A280230730203181C
:1010B2004A2873186228FF30F0057F30F105FF30AF
:1010C200F2050310F30C7308F500F601F701103076
:1010D2000310F50DF60DF70DFF3E031D6928750887
:1010E200F0047608F1047708F20474080319080082
:1010F200F21708007008F6007108F7007208F8008D
:101102000310770D780DF900790883120313A500F7
:101112002508031D95280030F3000030F20000304E
:10112200F1000030F00008007308F6007408F700C0
:101132007508F8000310770D780DF9007908A400FE
:101142002408031DAD280030F3000030F200003007
:10115200F1000030F0000800F117FF30F005FF3019
:10116200F1050030F205F417FF30F305FF30F40506
:101172000030F5050030A3000030A2000030A100CD
:101182000030A0007F30A50298302407F6007608D0
:10119200A5021830F6007608A4000130F60003100C
:1011A200A00DA10DA20DA30DF60BD0287508720299
:1011B200031DE12874087102031DE12873087002FF
:1011C200031CEE287308F0027408031C740FF1026A
:1011D2007508031C750AF202201401300310F00D89
:1011E200F10DF20DFF3E031DEF280130A402031D95
:1011F200CE28A51F1A292508803A973E03180A29E6
:101202000030F3000030F2000030F1000030F00056
:10121200080001300310A30CA20CA10CA00CFF3E8D
:10122200031D0B290130F6007608A507031935299D
:101232000A2918302502031C32290030F30000303D
:10124200F2000030F1000030F00008000130F6003A
:101252000310A00DA10DA20DA30DF60B292901303B
:10126200A5022508031D27292308F3002208F200FE
:101272002108F1002008F000080083120313270858
:10128200AD002808AE002908AF0003102E0D2F0D67
:10129200B0003008B1003108031D56290030A70004
:1012A2000030A8000030A90008002A08AD002B0871
:1012B200AE002C08AF0003102E0D2F0DB000300829
:1012C200B6003608031D6C290030A7000030A800C4
:1012D2000030A900080036087B3EAD002D08B1079A
:1012E2002708AD002808AE002908AF00103003100F
:1012F200AF0CAE0CAD0CFF3E031D78292D08B000DB
:101302003008B6002A08AD002B08AE002C08AF004A
:1013120010300310AF0CAE0CAD0CFF3E031D8A293A
:101322002D08B0003008B6068030AD002D08B60595
:10133200A817AB17FF30AA05FF30AB050030AC058C
:101342000030B2000030B3000030B4000730AD000E
:101352002D08B500271CBB292A08B2072B08031148
:1013620003182B0A031DB3072C08031103182C0AB8
:10137200031DB40701300310A90CA80CA70CFF3EF3
:10138200031DBC2901300310AA0DAB0DAC0DFF3EAD
:10139200031DC4290130B502031DAB290930AD007C
:1013A2002D08B500271CE3292A08B2072B080311D0
:1013B20003182B0A031DB3072C08031103182C0A68
:1013C200031DB40701300310A90CA80CA70CFF3EA3
:1013D200031DE42901300310B40CB30CB20CFF3E20
:1013E200031DEC290130B502031DD3293208F00098
:1013F2003308F1003408F2003108AD002D08F30083
:101402003608AE002E08F4000A128A150F20700862
:1014120083120313A7007108A8007208A90008002C
:10142200831203134708CD004808CE004908CF00B5
:1014320003104E0D4F0DD0005008D3004A08CD00C6
:101442004B08CE004C08CF0003104E0D4F0DD000BC
:101452005008D200530803193A2A520853020318BB
:10146200412A5303FF3A5207CD0019304D02031CA3
:10147200412A4A08C7004B08C8004C08C9000800A6
:10148200520803190800530852020318502A520343
:10149200FF3A5307CD0019304D02031808000630F9
:1014A200CD004D08D100C91BD117CC1B5117C8174D
:1014B200FF30C705FF30C8050030C905CB17FF3024
:1014C200CA05FF30CB050030CC0552085302031881
:1014D200902A01300310CA0DCB0DCC0DFF3E031D27
:1014E2006B2A0130D2025208530603198B2A0130AB
:1014F200D1025108073903198B2A6A2A01300310D5
:10150200C90CC80CC70CFF3E031D802A0130CD0058
:101512004D08D307530852060319B92A7F2A5308E4
:1015220052020318B92A01300310C70DC80DC90DA4
:10153200FF3E031D952A0130D302520853060319B8
:10154200B52A0130D102510807390319B52A942A64
:1015520001300310CC0CCB0CCA0CFF3E031DAA2A8F
:101562000130CD004D08D20753085206031DA92AA7
:10157200D11FCB2AFF30C706FF30C806FF30C9068D
:101582000130C707003003180130C80700300318C4
:101592000130C907511FDD2AFF30CA06FF30CB06D2
:1015A200FF30CC060130CA07003003180130CB07E8
:1015B200003003180130CC07D1014708CA07480898
:1015C20003110318480A031DCB0749080311031826
:1015D200490A031DCC07CC1F002BFF30CA06FF307F
:1015E200CB06FF30CC060130CA07003003180130A9
:1015F200CB07003003180130CC07D101D10A4A08C9
:10160200F0004B08F1004C08F2005308CD004D08E1
:10161200F3005108CE004E08F4000A128A150F207A
:10162200700883120313C7007108C8007208C9004A
:101632000800FF30831603138500860187018801A5
:101642000A168A11AD230A128A150A168A11012670
:101652000A128A150A168A11B6230A128A15F40189
:10166200F40A01300A168A1120250A128A158D30D1
:10167200F5008030F6000A168A11E3240A128A1550
:10168200F401F40A02300A168A1120250A128A1578
:101692008330F5008030F6000A168A11E3240A121C
:1016A2008A15153083120313E6004B30E500BD3076
:1016B200E400E40B5A2BE50B5A2BE60B5A2B612B59
:1016C20083160313CC01CD0100304D020F300319F4
:1016D2004C0203188E2B043083120313E6000C30E5
:1016E200E5003330E400E40B742BE50B742BE60BBE
:1016F200742B0A168A11C1230A128A150130831625
:101702000313CC070318CD0A0030CD0700304D0279
:101712000F3003194C02031C6C2B0A168A11B623D4
:101722000A128A15F401F40A01300A168A112025D8
:101732000A128A157730F5008030F6000A168A11EF
:10174200E3240A128A1500300A168A117A240A1230
:101752008A15710883160313CB007008CA004A0861
:10176200831203138600023083120313E60004304F
:10177200E500B930E400E40BBC2BE50BBC2BE60B17
:10178200BC2BC32BE83083120313A7009F30A800A1
:101792003B30A900831603134B08F9004A08F800EE
:1017A2000A168A11DF230A128A1578088312031394
:1017B200AA007908AB007A08AC000A128A153E2109
:1017C2000A128A1583120313270883160313C7000C
:1017D20083120313280883160313C800831203130A
:1017E200290883160313C900F401F40A02300A1609
:1017F2008A1120250A128A15973083120313E400F6
:101802006408DA0083160313470883120313DB000C
:1018120083160313480883120313DC008316031391
:10182200490883120313DD00B7300A128A11B82166
:101832000A128A15B730F5000030F6000A168A112E
:10184200E3240A128A15063083120313E6001330CA
:10185200E500AD30E400E40B2C2CE50B2C2CE60B60
:101862002C2CA42B703084000008F600840A000897
:10187200F700840A0008F800840A0008F90003103F
:10188200780D790DFA007A0883120313A500250852
:10189200031D542C0030F3000030F2000030F10040
:1018A2000030F0000800733084000008F600840A5B
:1018B2000008F700840A0008F800840A0008F9000A
:1018C2000310780D790DFA007A08A4002408031D8C
:1018D200732C0030F3000030F2000030F1000030D1
:1018E200F00008007030840000308004840A003068
:1018F2008004840A80308004840A003080047030BE
:101902008400FF308005840AFF308005840AFF309E
:101912008005840A00308005733084000030800422
:10192200840A00308004840A80308004840A0030F3
:10193200800473308400FF308005840AFF30800504
:10194200840AFF308005840A003080050030A3003D
:101952000030A2000030A1000030A0007F30A502BC
:10196200A0302407F6007608A5022030F60076089B
:10197200A4000130F6000310A00DA10DA20DA30DCD
:10198200F60BBC2C733084000008F600840A0008B1
:10199200F700840A0008F800840A0008F900703091
:1019A20084000008FA00840A0008FB00840A000888
:1019B200FC00840A0008FD0079087D02031DEB2C5F
:1019C20078087C02031DEB2C77087B02031DEB2CAD
:1019D20076087A02031C102D733084000008F6008A
:1019E200840A0008F700840A0008F800840A000844
:1019F200F9007030840076088002840A7708031C9C
:101A0200770F8002840A7808031C780F8002840A08
:101A12007908031C790A8002033084022014703092
:101A220084000310800D840A800D840A800D840ACC
:101A3200800D8403840384030130A402031DBA2CA5
:101A4200A51F412D2508803A9F3E0318312D0030F5
:101A5200F3000030F2000030F1000030F000080026
:101A620001300310A30CA20CA10CA00CFF3E031D1D
:101A7200322D0130F6007608A50703195C2D312DB1
:101A820020302502031C592D0030F3000030F200F3
:101A92000030F1000030F00008000130F6000310C1
:101AA200A00DA10DA20DA30DF60B502D0130A50224
:101AB2002508031D4E2D2308F3002208F2002108F9
:101AC200F1002008F000080083120313BF00BF1FBB
:101AD200B62EBF09BF0A3F08803A123E031C292EC8
:101AE2000330BA003A08A4000A30F7000030F800C8
:101AF2003F08F200F301F21BF3036430F000003000
:101B0200F1000A168A116A250A128A157108FA006A
:101B12007008F9000A168A115C260A128A157708DB
:101B2200093E0A168A11CC230A128A15503E8400F5
:101B32000A168A110A200A128A1583120313A700B1
:101B42000A168A110A200A128A15A8000A168A1190
:101B52000A200A128A15A9000330BB003B08A40020
:101B62006430F7000030F8003F08F900FA01F91B71
:101B7200FA030A168A115C260A128A157708123E9F
:101B82000A168A11CC230A128A15503E84000A16BC
:101B92008A110A200A128A1583120313AA000A164E
:101BA2008A110A200A128A15AB000A168A110A2023
:101BB2000A128A15AC000A128A153E210A128A15E7
:101BC200831203132708BC002808BD002908BE00A1
:101BD2000330BA003A08A4003F08F200F301F21BF6
:101BE200F3030A30F0000030F1000A168A116A2568
:101BF2000A128A1570080A168A11CC230A128A154B
:101C0200503E84000A168A110A200A128A1583128B
:101C12000313A7000A168A110A200A128A15A800BD
:101C22000A168A110A200A128A15A9003C08AA007B
:101C32003D08AB003E08AC000A128A153E21831211
:101C420003132708B7002808B8002908B9000800BC
:101C52003F08803A753E031C972E0330BA003A08BB
:101C6200A4003F08F200F301F21BF3030A30F00074
:101C72000030F1000A168A116A250A128A157008C4
:101C82000A168A11CC230A128A15503E84000A16BB
:101C92008A110A200A128A1583120313A7000A1650
:101CA2008A110A200A128A15A8000A168A110A2025
:101CB2000A128A15A9000330BB003B08A4000A30AF
:101CC200F7000030F8003F08F900FA01F91BFA03A7
:101CD2000A168A115C260A128A157708093E0A1624
:101CE2008A11CC230A128A15503E84000A168A11E0
:101CF2000A200A128A1583120313AA000A168A11ED
:101D02000A200A128A15AB000A168A110A200A1240
:101D12008A15AC000A128A153E2183120313270882
:101D2200B7002808B8002908B90008000330BA0033
:101D32003A08A4003F080A168A11CC230A128A150F
:101D4200503E84000A168A110A200A128A1583124A
:101D52000313B7000A168A110A200A128A15B8005C
:101D62000A168A110A20B90008003F08803A123E7A
:101D7200031C732F0330BA003A08A4000A30F7009C
:101D82000030F8003F08F200F301F21BF303643065
:101D9200F0000030F1000A168A116A250A128A152B
:101DA2007108FA007008F9000A168A115C260A12F4
:101DB2008A157708093E0A168A11CC230A128A1557
:101DC200293E84000A168A110A200A128A158312F1
:101DD2000313A7000A168A110A200A128A15A800FC
:101DE2000A168A110A200A128A15A9000330BB00BA
:101DF2003B08A4006430F7000030F8003F08F90007
:101E0200FA01F91BFA030A168A115C260A128A15CC
:101E12007708123E0A168A11CC230A128A15293E25
:101E220084000A168A110A200A128A1583120313E1
:101E3200AA000A168A110A200A128A15AB000A168B
:101E42008A110A200A128A15AC000A128A153E214A
:101E52000A128A15831203132708BC002808BD0042
:101E62002908BE000330BA003A08A4003F08F20075
:101E7200F301F21BF3030A30F0000030F1000A16FE
:101E82008A116A250A128A1570080A168A11CC2349
:101E92000A128A15293E84000A168A110A200A1299
:101EA2008A1583120313A7000A168A110A200A123E
:101EB2008A15A8000A168A110A200A128A15A90090
:101EC2003C08AA003D08AB003E08AC000A128A1585
:101ED2003E21831203132708B7002808B8002908F7
:101EE200B90008003F08803A753E031CE12F033019
:101EF200BA003A08A4003F08F200F301F21BF30310
:101F02000A30F0000030F1000A168A116A250A121E
:101F12008A1570080A168A11CC230A128A15293EDC
:101F220084000A168A110A200A128A1583120313E0
:101F3200A7000A168A110A200A128A15A8000A1690
:101F42008A110A200A128A15A9000330BB003B0835
:101F5200A4000A30F7000030F8003F08F900FA0147
:101F6200F91BFA030A168A115C260A128A157708E7
:101F7200093E0A168A11CC230A128A15293E8400C8
:101F82000A168A110A200A128A1583120313AA005A
:101F92000A168A110A200A128A15AB000A168A1139
:101FA2000A200A128A15AC000A128A153E218312EF
:101FB20003132708B7002808B8002908B900080049
:101FC2000330BA003A08A4003F080A168A11CC234B
:101FD2000A128A15293E84000A168A110A200A1258
:101FE2008A1583120313B7000A168A110A200A12ED
:101FF2008A15B8000A168A110A20B9000800FF1BC8
:102002000A2883137F1883170008840A0319FF0A1A
:10201200080010308A000408840A82070034013460
:102022000034003400340A340034003400346434A0
:10203200003400340034E834033400340034103403
:10204200273400340034A034863401340034403460
:1020520042340F34003480349634983400340034DF
:10206200E134F53405340034CA349A343B34003454
:1020720080343F340034203441340034C834423494
:1020820000347A34443440341C3446345034C3343B
:102092004734243474344934973418344B34BC34C0
:1020A200BE344C346B346E344E34033415345034F5
:1020B2007934AD346034F3344934713400348034CB
:1020C2003F34CD34CC343D34D73423343C34123411
:1020D20083343A34B734D1343834C63427343734BD
:1020E200383486343534C034D6343334CC342B349B
:1020F2003234703489343034E734DB342E34E5340E
:102102003C341E344234A2340D344C3465346934C8
:102112007434753472346134203441344434433479
:1021220000344D3450344C34413442342034583429
:102132004334383400344C3443344434203465342A
:102142002034413444344334003425342E3433347F
:082152006634203456340034D9
:10274A00720871047004031908008030F206080048
:10275A008130831203139F008030831603139F0076
:10276A00080000300A128A1104200A168A11013060
:10277A000A128A110420080001300A128A11042060
:10278A000A168A1108300A128A11042008008312D4
:10279A000313A600A501261CD62B2408FC007C08DE
:1027AA00A5070310A40D0310A60C2608031DD02BA1
:1027BA00250808007808F0007908F100F2018E3047
:1027CA00FB007B08F300F4010A128A150F20700837
:1027DA00F8007108F9007208FA000800F000701C8D
:1027EA00FA2B831203130816FD2B83120313081204
:1027FA00F01C012C8816022C8812701D062C081752
:10280A00072C0813F01D0B2C8817080088130800E2
:10281A00831203135608550454040319162C8030E6
:10282A00D6065708C7005808C8005908C9005408EE
:10283A00CA005508CB005608CC000A128A15112284
:10284A00831203134708D4004808D5004908D60064
:10285A000800F401F501701C382C7208F4070318FB
:10286A00F50A7308F50701300310F20DF30DFF3E68
:10287A00031D392C01300310F10CF00CFF3E031D2F
:10288A00402C70087104031D302C7508F10074087F
:10289A00F00008008E30FC007C08FD00FF307B054C
:1028AA000319652C01300310FB0CFA0CF90CF80C17
:1028BA00FF3E031D582C0130FC007C08FD07532CF9
:1028CA007808F0007908F1007A08F2007D08FC0027
:1028DA007C08F300F4010A128A150F207008F80028
:1028EA007108F9007208FA000800F400083074024E
:1028FA00031C822CF001F1010800C530F2007208B5
:10290A00831203139F057408F20002300310F20DBC
:10291A00FF3E031D8B2C0310720DF30073089F04F6
:10292A000630F3003030F200F20B992CF30B992C9D
:10293A000000831203131F151F19A12C1E08F10092
:10294A00831603131E08F0000800F40074080F39F8
:10295A00F1007108F2007408F039F1007108F3000F
:10296A008312031308157308F10004300310F10CE5
:10297A00FF3E031DBB2C71080A168A11F3230A169F
:10298A008A118312031388151A30F100F10BCB2C2C
:10299A00000083120313881172080A168A11F3239E
:1029AA000A168A118312031388151A30F100F10BE3
:1029BA00DC2C00008312031388110800FA01FB01C2
:1029CA007A087507F8007608F7000318F70AFA1B61
:1029DA00F7037708F900790883120313FF007808D0
:1029EA0084000A168A1100200A168A11003A03196D
:1029FA0008007A087507F8007608F7000318F70A3E
:102A0A00FA1BF7037708F900790883120313FF000A
:102A1A00780884000A168A1100200A168A110A16F2
:102A2A008A11AA240A168A110130FA070318FB0A26
:102A3A000030FB07E52CF7007703031D452D7408CA
:102A4A007F3EF5007508FA007A08F5000430031095
:102A5A00F50CFF3E031D2C2D7508F6007608F800CC
:102A6A007A080F39F5007508F90078080A128A11F0
:102A7A0004200A168A1179080A128A110420080009
:102A8A0002307706031D08007408BF3EF50075087A
:102A9A00FA007A08F50004300310F50CFF3E031D16
:102AAA00512D7508F6007608F8007A080F39F500F6
:102ABA007508F90078080A128A1104200A168A1180
:102ACA0079080A128A1104200800F601F31F742DEE
:102ADA00F209F309F20A0319F30AF601F60AF11FD9
:102AEA007B2DF009F109F00A0319F10A7008710443
:102AFA000319A82DF501F50AF11B8F2D01300310DA
:102B0A00F00DF10DFF3E031D842D0130F400740811
:102B1A00F507812D71087302031D952D7008720245
:102B2A00031C9D2D7008F2027108031CF303F302C3
:102B3A0001300310F10CF00CFF3E031D9E2D0130F5
:102B4A00F502031D8F2D76080319B02DF209F3093A
:102B5A00F20A0319F30A7308F1007208F000080078
:102B6A0073087204710470040319F82DF901F90A43
:102B7A00F31BCD2D0130F8000310F00DF10DF20D0D
:102B8A00F30DF80BC12D0130F8007808F907BD2DB7
:102B9A0073087702031DDB2D72087602031DDB2DF5
:102BAA0071087502031DDB2D70087402031CEB2DDE
:102BBA007008F4027108031C710FF5027208031CF5
:102BCA00720FF6027308031C730FF7020130031029
:102BDA00F30CF20CF10CF00CFF3E031DEC2D01304E
:102BEA00F902031DCD2D7708F3007608F200750867
:102BFA00F1007408F000080000300A168A11F32365
:102C0A000A168A113430F500F130F400F40B0B2E59
:102C1A00F50B0B2E102E03300A128A1104200A1605
:102C2A008A110D30F500FB30F400F40B1A2EF50B67
:102C3A001A2E1F2E03300A128A1104200A168A112C
:102C4A001D30F5009130F400F40B292EF50B292ED6
:102C5A0003300A128A1104200A168A1102300A1253
:102C6A008A1104200A168A1102300A128A110420D3
:102C7A000A168A1108300A128A1104200A168A11C1
:102C8A0000300A128A1104200A168A110C300A121C
:102C9A008A1104200A168A1100300A128A110420A5
:102CAA000A168A1106300A128A11042008008312B1
:102CBA000313A101F81F682EF709F809F70A031987
:102CCA00F80AA101A10AFA1F732EF909FA09F90AE9
:102CDA000319FA0A0130FB007B08A106A201A3012D
:102CEA00770878040319AA2EA001A00AF81B892ED6
:102CFA0001300310F70DF80DFF3E031D7E2E013043
:102D0A00FB007B08A0077B2E01300310A20DA30D48
:102D1A00FF3E031D8A2E78087A02031D962E770835
:102D2A007902031C9F2E7708F9027808031CFA031C
:102D3A00FA02221401300310F80CF70CFF3E031DAF
:102D4A00A02E0130A002031D892E21080319B22EDC
:102D5A00A209A309A20A0319A30A2308F800220850
:102D6A00F7000800F21FDE2E0030F6000030F700F0
:102D7A008030F8007009F9007109FA007209FB0045
:102D8A00F90A0319FA0A0319FB0A7908F6077A08F5
:102D9A0003187A0FD12ED22EF7077B0803187B0F60
:102DAA00D72ED82EF8077608F0007708F1007808B1
:102DBA00F200F51F052F0030F6000030F7008030D2
:102DCA00F8007309F9007409FA007509FB00F90A99
:102DDA000319FA0A0319FB0A7908F6077A0803188D
:102DEA007A0FF82EF92EF7077B0803187B0FFE2EB1
:102DFA00FF2EF8077608F3007708F4007808F50044
:102E0A008030F2068030F50675087202031D08004C
:102E1A0074087102031D080073087002080000306C
:102E2A00FC000030FB000030FA000030F9007308A3
:102E3A007204710470040319692FFD01FD0AF31B62
:102E4A00342F0130F8000310F00DF10DF20DF30DDF
:102E5A00F80B282F0130F8007808FD07242F0130DD
:102E6A00F8000310F90DFA0DFB0DFC0DF80B362FC7
:102E7A0073087702031D4B2F72087602031D4B2F2E
:102E8A0071087502031D4B2F70087402031C5C2F16
:102E9A007008F4027108031C710FF5027208031C12
:102EAA00720FF6027308031C730FF70279140130CC
:102EBA000310F30CF20CF10CF00CFF3E031D5D2F16
:102ECA000130FD02031D342F7C08F3007B08F20059
:102EDA007A08F1007908F000080083120313400809
:102EEA00C4004108C5004208C6000310450D460D3E
:102EFA00C7004708CD004D08031D8C2F0030C300C2
:102F0A000030C2000030C1000030C0000800400894
:102F1A00C4004108C5004208C60017300310C60C99
:102F2A00C50CC40CFF3E031D932F4408C700470875
:102F3A00C800C117FF30C005FF30C1050030C20507
:102F4A004008C9004108CA004208CB00CC018E30B3
:102F5A00CD02CD1FCE2F4D08803A8F3E0318BE2FCB
:102F6A000030C3000030C2000030C1000030C00091
:102F7A00080001300310CC0CCB0CCA0CC90CFF3E64
:102F8A00031DBF2F0130C4004408CD070319E92FE0
:102F9A00BE2F18304D02031CE62F0030C30000304C
:102FAA00C2000030C1000030C00008000130C40077
:102FBA000310C90DCA0DCB0DCC0DC40BDD2F01308A
:102FCA00CD024D08031DDB2F48080319F72FC90945
:102FDA00CA09CB09CC09C90A0319CA0A0319CB0AB7
:102FEA000319CC0A4C08C3004B08C2004A08C100A6
:062FFA004908C0000800B8
:02400E007A3FF7
:00000001FF
